:020000040800F2
:1000000070060020650100081B02000819020008A4
:1000100000000000000000000000000000000000E0
:100020000000000000000000000000001F020008A7
:1000300000000000000000001D020008210200086E
:1000400077010008770100087701000877010008B0
:1000500077010008770100087701000877010008A0
:100060007701000877010008770100087701000890
:100070007701000877010008770100087701000880
:100080007701000877010008770100087701000870
:100090007701000877010008770100087701000860
:1000A0007701000877010008770100087701000850
:1000B0007701000877010008770100087701000840
:1000C00000F002F800F03EF80CA030C80838241800
:1000D0002D18A246671EAB4654465D46AC4201D180
:1000E00000F030F87E460F3E0FCCB6460126334274
:1000F00000D0FB1AA246AB46334318473402000037
:1001000054020000103A02D378C878C1FAD85207D6
:1001100001D330C830C101D504680C6070470000BD
:100120000023002400250026103A01D378C1FBD813
:10013000520700D330C100D50B6070471FB51FBDFB
:1001400010B510BD00F02DF81146FFF7F7FF00F0D5
:100150006DF800F045F803B4FFF7F2FF03BC00F0C0
:100160004BF800000748804707480047FEE7FEE7D6
:10017000FEE7FEE7FEE7FEE704480549054A064BB1
:100180007047000029020008C1000008700000202C
:100190007006002070020020700200207047704737
:1001A0007047754600F024F8AE4605006946534690
:1001B000C008C000854618B020B5FFF7DDFF60BC61
:1001C00000274908B6460026C0C5C0C5C0C5C0C581
:1001D000C0C5C0C5C0C5C0C5403D49008D467047BB
:1001E00010B50446C046C0462046FFF7B4FF10BD18
:1001F000004870470C00002001491820ABBEFEE704
:1002000026000200704700000248816802788918C1
:100210008160704700000020FEE7FEE770477047EE
:1002200010B5FFF7F1FF10BD704700001748416996
:100230000322920411434161C169012292041143D6
:10024000C16113480168452212031143016011483E
:100250000168C20211430160016842031143016059
:10026000416A11229202114341620B4C4520E06029
:1002700020680D2108432060074D2035E069800685
:10028000FCD5A888C0B200F01FF8F7E700100240C4
:1002900000080048000400480048004010B504462B
:1002A000002302E000F006F85B1CE05C0028F9D1B6
:1002B00010BD00000349CA691206FCD5014920316E
:1002C000088170470048004010B50F490446622875
:1002D00014D0672C0ED0722C09D00CA0FFF7DEFFD3
:1002E0002046FFF7E7FF11A0FFF7D8FF10BD4869D0
:1002F000402205E048690122520201E0486980225B
:100300005040486110BD0000000800484572726FFF
:10031000723A20556E7265636F676E697A65642004
:10032000636F6D6D616E642027000000270A000076
:1003300050030008000000200C0000000401000829
:100340005C0300080C000020640600002001000887
:0C0350000100000004000000000000009C
:04000005080000C12E
:00000001FF
