:020000040800F2
:1000000078060020650100081B020008190200089C
:1000100000000000000000000000000000000000E0
:100020000000000000000000000000001F020008A7
:1000300000000000000000001D020008210200086E
:1000400077010008770100087701000877010008B0
:1000500077010008770100087701000877010008A0
:100060007701000877010008770100087701000890
:100070007701000877010008770100087701000880
:100080007701000877010008770100087701000870
:100090007701000877010008770100087701000860
:1000A0007701000877010008770100087701000850
:1000B000770100082D020008770100087701000889
:1000C00000F002F800F03EF80CA030C80838241800
:1000D0002D18A246671EAB4654465D46AC4201D180
:1000E00000F030F87E460F3E0FCCB6460126334274
:1000F00000D0FB1AA246AB46334318471004000059
:1001000030040000103A02D378C878C1FAD85207F8
:1001100001D330C830C101D504680C6070470000BD
:100120000023002400250026103A01D378C1FBD813
:10013000520700D330C100D50B6070471FB51FBDFB
:1001400010B510BD00F02DF81146FFF7F7FF00F0D5
:100150008BF800F045F803B4FFF7F2FF03BC00F0A2
:100160004BF800000748804707480047FEE7FEE7D6
:10017000FEE7FEE7FEE7FEE704480549054A064BB1
:100180007047000029020008C10000087800002024
:10019000780600207802002078020020704770471F
:1001A0007047754600F024F8AE4605006946534690
:1001B000C008C000854618B020B5FFF7DDFF60BC61
:1001C00000274908B6460026C0C5C0C5C0C5C0C581
:1001D000C0C5C0C5C0C5C0C5403D49008D467047BB
:1001E00010B50446C046C0462046FFF7B4FF10BD18
:1001F000004870471400002001491820ABBEFEE7FC
:1002000026000200704700000248816802788918C1
:100210008160704708000020FEE7FEE770477047E6
:1002200010B5FFF7F1FF10BD7047000000B50C4896
:10023000C06980060CD50A4820308188094A1046DA
:100240004368D1544168012903D04168491C416089
:1002500000BD002141605178107800F061F800BDC8
:1002600000480040000000201F484169032292041A
:1002700011434161C169012292041143C1611B48CC
:100280000168452212031143016019480168C20246
:10029000114301600168420311430160416A112268
:1002A0009202114341621349C00408601249086870
:1002B000FF221202904301229203104308600F486C
:1002C0004521C16001682D22114301600C4C0026BC
:1002D000254600F017F860680228FCD16978287874
:1002E00000F01EF86660F4E70010024000080048C5
:1002F0000004004800E100E01CE400E00048004089
:100300000000002000B503A000F05EF803A000F09C
:100310005BF800BD434D443F000000000A000000B0
:1003200030B50D460446622808D0672C06D0722CE2
:1003300004D00FA000F048F8204609E0302D0DD081
:10034000312D0ED0322D0FD011A000F03DF82846EF
:1003500000F030F816A000F037F830BD00F072F869
:1003600030BD00F0A1F830BD00F03AF830BD00001B
:100370004572726F723A20556E7265636F676E696F
:100380007A656420636F6D6D616E642027000000E4
:100390004572726F723A20556E7265636F676E694F
:1003A0007A656420616374696F6E20270000000025
:1003B000270A00000349CA691206FCD50149203109
:1003C000088170470048004010B50446002302E051
:1003D000FFF7F0FF5B1CE05C0028F9D110BD0000C6
:1003E00010B50F490446622814D0672C0ED0722C29
:1003F00009D00CA0FFF7E8FF2046FFF7DBFF10A0B5
:10040000FFF7E2FF10BD4869402205E0486901227C
:10041000520201E0486980225040486110BD00004E
:10042000000800484572726F723A20556E7265631B
:100430006F676E697A656420636F6C6F7220270046
:10044000270A000010B50F490446622814D0672C13
:100450000ED0722C09D00CA0FFF7B6FF2046FFF794
:10046000A9FF10A0FFF7B0FF10BD4869402205E0CA
:1004700048690122520201E04869802290434861A4
:1004800010BD0000000800484572726F723A205596
:100490006E7265636F676E697A656420636F6C6FF7
:1004A00072202700270A000010B50F490446622871
:1004B00014D0672C0ED0722C09D00CA0FFF784FF4B
:1004C0002046FFF777FF10A0FFF77EFF10BD4869B9
:1004D000402205E048690122520201E04869802279
:1004E0001043486110BD0000000800484572726F5B
:1004F000723A20556E7265636F676E697A65642023
:10050000636F6C6F72202700270A00002C0500081B
:10051000000000201400000004010008400500084D
:100520001400002064060000200100080000000004
:1005300000000000010000000400000000000000B6
:04000005080000C12E
:00000001FF
