:020000040800F2
:1000000070060020650100081B02000819020008A4
:1000100000000000000000000000000000000000E0
:100020000000000000000000000000001F020008A7
:1000300000000000000000001D020008210200086E
:1000400077010008770100087701000877010008B0
:1000500077010008770100087701000877010008A0
:100060007701000877010008770100087701000890
:100070007701000877010008770100087701000880
:100080007701000877010008770100087701000870
:100090007701000877010008770100087701000860
:1000A0007701000877010008770100087701000850
:1000B0007701000877010008770100087701000840
:1000C00000F002F800F03EF80CA030C80838241800
:1000D0002D18A246671EAB4654465D46AC4201D180
:1000E00000F030F87E460F3E0FCCB6460126334274
:1000F00000D0FB1AA246AB463343184770020000FB
:1001000090020000103A02D378C878C1FAD852079A
:1001100001D330C830C101D504680C6070470000BD
:100120000023002400250026103A01D378C1FBD813
:10013000520700D330C100D50B6070471FB51FBDFB
:1001400010B510BD00F02DF81146FFF7F7FF00F0D5
:100150006DF800F045F803B4FFF7F2FF03BC00F0C0
:100160004BF800000748804707480047FEE7FEE7D6
:10017000FEE7FEE7FEE7FEE704480549054A064BB1
:100180007047000029020008C1000008700000202C
:100190007006002070020020700200207047704737
:1001A0007047754600F024F8AE4605006946534690
:1001B000C008C000854618B020B5FFF7DDFF60BC61
:1001C00000274908B6460026C0C5C0C5C0C5C0C581
:1001D000C0C5C0C5C0C5C0C5403D49008D467047BB
:1001E00010B50446C046C0462046FFF7B4FF10BD18
:1001F000004870470C00002001491820ABBEFEE704
:1002000026000200704700000248816802788918C1
:100210008160704700000020FEE7FEE770477047EE
:1002200010B5FFF7F1FF10BD70470000F0B5494A67
:10023000506903218904084350614748016831230C
:10024000DB051943016041680523DB021943416066
:10025000C16811239B051943C160416A3F4B194393
:100260004162416901239B03194341613C4908688C
:1002700001231843086048691843486108685524F9
:10028000240320430860D069CC022043D061354864
:100290000269354C2243026102681A4302604268D7
:1002A000D2231A4342604268FF242404A2434260DE
:1002B00042684C012243426042680415A2434260F6
:1002C000426845142A43426040228669B60706D434
:1002D0008669F606F9D5886910438861FBE7866A66
:1002E0000F273E43866286697606FCD546681E4324
:1002F00046604668FF231B049E4346604368012610
:1003000036043343436043682343436043682B43CD
:10031000436083695B0706D48369DB06F9D5886986
:1003200010438861FBE7426AD32A03D18A6980239C
:100330001A438A6181694906FCD542680121890313
:100340000A43426042685204FCD442688A434260D5
:100350000020F0BD001002400004004800105000D2
:100360000008004800580040130F42108C0300089A
:10037000000000200C0000000401000898030008A1
:100380000C000020640600002001000801000000AD
:08039000040000000000000061
:04000005080000C12E
:00000001FF
