:020000040800F2
:1000000070060020650100081B02000819020008A4
:1000100000000000000000000000000000000000E0
:100020000000000000000000000000001F020008A7
:1000300000000000000000001D020008210200086E
:1000400077010008770100087701000877010008B0
:1000500077010008770100087701000877010008A0
:100060007701000877010008770100087701000890
:100070007701000877010008770100087701000880
:100080007701000877010008770100087701000870
:100090007701000877010008770100087701000860
:1000A0007701000877010008770100087701000850
:1000B0007701000877010008770100087701000840
:1000C00000F002F800F03EF80CA030C80838241800
:1000D0002D18A246671EAB4654465D46AC4201D180
:1000E00000F030F87E460F3E0FCCB6460126334274
:1000F00000D0FB1AA246AB46334318473802000033
:1001000058020000103A02D378C878C1FAD85207D2
:1001100001D330C830C101D504680C6070470000BD
:100120000023002400250026103A01D378C1FBD813
:10013000520700D330C100D50B6070471FB51FBDFB
:1001400010B510BD00F02DF81146FFF7F7FF00F0D5
:100150006DF800F045F803B4FFF7F2FF03BC00F0C0
:100160004BF800000748804707480047FEE7FEE7D6
:10017000FEE7FEE7FEE7FEE704480549054A064BB1
:100180007047000029020008C1000008700000202C
:100190007006002070020020700200207047704737
:1001A0007047754600F024F8AE4605006946534690
:1001B000C008C000854618B020B5FFF7DDFF60BC61
:1001C00000274908B6460026C0C5C0C5C0C5C0C581
:1001D000C0C5C0C5C0C5C0C5403D49008D467047BB
:1001E00010B50446C046C0462046FFF7B4FF10BD18
:1001F000004870470C00002001491820ABBEFEE704
:1002000026000200704700000248816802788918C1
:100210008160704700000020FEE7FEE770477047EE
:1002200010B5FFF7F1FF10BD704700003B48416972
:100230000322920411434161C169012292051143D5
:10024000C161374801683122D2051143016041681C
:100250000522D20211434160416A324A1143416290
:10026000816901229203114381612F4D2868511C3D
:1002700008432860A86901210843A8612B48026946
:100280002B4B1A43026102680A43026042686921EB
:100290000A43426043686A0113434360446803159C
:1002A0009C43446046684414264346600AE08669DD
:1002B000B60704D56E6980273E436E6108E0866903
:1002C000F60605D48669B60702D48669F606EED529
:1002D0000F25856285696D06FCD545680D4345602F
:1002E00041681143416041681943416041682143BD
:1002F000416002E08169C90605D48169490702D4D9
:100300008169C906F6D581694906FCD5416A41680B
:100310000122920311434160FEE7000000100240F9
:1003200000040048005050000008004800580040F9
:10033000130F421054030008000000200C000000BE
:1003400004010008600300080C000020640600009F
:10035000200100080100000004000000000000006F
:04000005080000C12E
:00000001FF
