:020000040800F2
:1000000078060020650100085F0B00085D0B000802
:1000100000000000000000000000000000000000E0
:10002000000000000000000000000000630B00085A
:100030000000000000000000610B0008650B0008D4
:1000400077010008770100087701000877010008B0
:1000500077010008A504000877010008770100086F
:100060007701000877010008770100087701000890
:100070007701000877010008770100087701000880
:100080007701000877010008770100087701000870
:100090007701000877010008770100087701000860
:1000A0007701000877010008770100087701000850
:1000B0007701000877010008770100087701000840
:1000C00000F002F800F03EF80CA030C80838241800
:1000D0002D18A246671EAB4654465D46AC4201D180
:1000E00000F030F87E460F3E0FCCB6460126334274
:1000F00000D0FB1AA246AB4633431847200C000041
:10010000400C0000103A02D378C878C1FAD85207E0
:1001100001D330C830C101D504680C6070470000BD
:100120000023002400250026103A01D378C1FBD813
:10013000520700D330C100D50B6070471FB51FBDFB
:1001400010B510BD00F07BF91146FFF7F7FF00F086
:1001500085FD00F093F903B4FFF7F2FF03BC00F054
:1001600099F900000748804707480047FEE7FEE787
:10017000FEE7FEE7FEE7FEE704480549054A064BB1
:1001800070470000E50B0008C1000008780000205F
:10019000780600207802002078020020FEB505468F
:1001A00010460C46184373D0AE468C460020AD1A5C
:1001B00001469C4167D36646002701243D46B61A96
:1001C0009D4102D313463A462124654676462F04C4
:1001D000360C3E432D0CB61A9D4104D3150C1B045E
:1001E0002B4312041034654676462F06360A3E43EA
:1001F0002D0AB61A9D4104D3150E1B022B43120281
:100200000834654676462F0736093E432D09B61A4F
:100210009D4104D3150F1B012B431201241D65467C
:100220007646AF07B6083E43AD08B61A9D4104D3E3
:10023000950F9B002B439200A41C65467646EF0762
:1002400076083E436D08B61A9D411AD392185B4159
:10025000641C16E00018764665464941B71A9D4170
:100260000191009009D36046B11A98418E468446A8
:10027000009801990025401C6941DD0752082A4376
:100280005B08641EE6D57246634603B0F0BDFFE727
:1002900000200146C046C0462A462346F5E701E055
:1002A00004C0091F0429FBD28B0701D50280801CE2
:1002B000C90700D00270704700290BD0C30702D0D5
:1002C0000270401C491E022904D3830702D5028014
:1002D000801C891EE3E70022EEE70022DFE7002210
:1002E00003098B422CD3030A8B4211D300239C4673
:1002F0004EE003460B433CD4002243088B4231D3EB
:1003000003098B421CD3030A8B4201D394463FE07E
:10031000C3098B4201D3CB01C01A524183098B42DE
:1003200001D38B01C01A524143098B4201D34B01C7
:10033000C01A524103098B4201D30B01C01A52412A
:10034000C3088B4201D3CB00C01A524183088B42B1
:1003500001D38B00C01A524143088B4201D34B009A
:10036000C01A5241411A00D201465241104670470C
:100370005DE0CA0F00D04942031000D34042534011
:1003800000229C4603098B422DD3030A8B4212D3D1
:10039000FC22890112BA030A8B420CD38901921103
:1003A0008B4208D3890192118B4204D389013AD040
:1003B000921100E08909C3098B4201D3CB01C01A15
:1003C000524183098B4201D38B01C01A5241430928
:1003D0008B4201D34B01C01A524103098B4201D316
:1003E0000B01C01A5241C3088B4201D3CB00C01A83
:1003F000524183088B4201D38B00C01A5241D9D29B
:1004000043088B4201D34B00C01A5241411A00D21B
:100410000146634652415B10104601D34042002B17
:1004200000D54942704763465B1000D3404201B596
:100430000020C046C04602BD7047704770477546F1
:1004400000F024F8AE46050069465346C008C000D7
:10045000854618B020B5FFF78FFE60BC002749081D
:10046000B6460026C0C5C0C5C0C5C0C5C0C5C0C54C
:10047000C0C5C0C5403D49008D46704710B5044613
:10048000C046C0462046FFF766FE10BD00487047D4
:100490001400002001491820ABBEFEE72600020030
:1004A0007047000008B50A484269032109024A4022
:1004B000426100220092074A009B5B1C009393421A
:1004C000FAD342694A40426103484169416108BD2B
:1004D0000008004860E316000004014070B50446BF
:1004E00000F00EF80546601C02D00448007824187D
:1004F00000F006F8401BA042FAD370BD04000020B3
:1005000001488068704700000400002002488168AC
:1005100002788918816070470400002010B50648F1
:100520000168102211430160032000F007F800F079
:1005300027F8002010BD00000020024070B50446DE
:100540000D4D7D202978C000FFF7C9FE01460B48FC
:100550000068FFF7C4FE00F0E9FA002809D1042C76
:1005600007D200222146401E00F01EF800206C60D9
:1005700070BD012070BD00000400002010000020AC
:1005800008B50848816901221143816181691140E0
:100590000091C26901040A43C261C0690840009029
:1005A00008BD00000010024010B500F035FB10BD82
:1005B000F8B50F4606005ED03C4D2868C007C00F56
:1005C000B84209D2286840084000384328602868AB
:1005D000C007C00FB8424ED13068354C81070CD5EA
:1005E000400704D56068072109020843606060681D
:1005F000F0218843B168084360603078C0072BD091
:100600007068012810D0022810D0032811D021686A
:10061000890700292FDA6168890889000143616030
:10062000FFF76EFF009010E0216803E02168890168
:10063000EFE7616B8903ECE7FFF762FF0099411A6E
:100640001C48814201D90320F8BD60680C21084094
:10065000716889008842EFD12868C007C00FB8428E
:100660000BD9286840084000384328602868C00734
:10067000C00FB84201D00120F8BD3078400706D540
:100680006068072109028843F1680843606000F050
:1006900017F86168084A0906090F515CC840074904
:1006A00008600320FFF74AFF0020F8BD0020024049
:1006B00000100240881300000C0D000810000020FC
:1006C00070B5154A51680C200B4603401348042BA3
:1006D00005D0134D082B03D00C2B00D1284670BD3C
:1006E0008B02104C1B0FE45CD26A0E4B1207120FE8
:1006F0001033C9039A5C890F022901D0032901D064
:10070000002301E0002328460021FFF747FD214692
:1007100000F069FA70BD00000010024000127A007B
:10072000006CDC02EC0C0008FEB5040070D02078F0
:10073000F94EFA4DC00748D068680007800F0128BD
:100740001FD068680007800F022804D16868C003C2
:10075000800F022815D06168012919D0012080047A
:10076000002901D0052917D02968B14329602968DB
:1007700081432960606800281BD0FFF7C1FE07464F
:1007800013E02868800320D560680028CED01CE0E4
:10079000286830432860EDE7296801432960F7E7BE
:1007A000FFF7AEFEC01B642870D828688003F7D519
:1007B0000BE0FFF7A5FE074604E0FFF7A1FEC01B14
:1007C0006428F1D828688003F7D4207880073FD5C3
:1007D00068680007800F14D068680007800F02283F
:1007E00004D16868C003800F01280AD0E06800289F
:1007F00028681ED0012108432860FFF781FE0746C4
:100800000CE0286880070CD5E068012800D108E0DA
:1008100080E1FFF775FEC01B0228C5D82868800755
:10082000F7D52868F82188432169C9000843286062
:100830000EE0400840002860FFF762FE074604E033
:10084000FFF75EFEC01B0228AED828688007F7D4E9
:100850002078000723D5E0690028686A0FD00121BD
:1008600008436862FFF74CFE074604E0FFF748FEC6
:10087000C01B022898D8686A8007F7D50FE04008A7
:1008800040006862FFF73CFE074605E0C3E0FFF763
:1008900037FEC01B022887D8686A8007F7D4207803
:1008A00004274007002861DA00200190E869C000B1
:1008B00008D4E969B8060143E961E969014001200A
:1008C0000091019096480168C90511D4016882150C
:1008D00011430160FFF714FE009005E0FFF710FEE2
:1008E0000099401A642898D88D480068C005F5D54D
:1008F000A06801280AD0002801D0052811D0286A54
:10090000400840002862286AB84302E0286A0121B2
:1009100008432862A068002812D0FFF7F1FD00907C
:100920000AE0286A38432862F0E7FFF7E9FD0099FA
:10093000411A7C4881426ED8286A8007F5D50DE0BF
:10094000FFF7DEFD009006E0FFF7DAFD0099411A9F
:10095000744881425FD8286A8007F5D4019800283E
:1009600004D0E969012000078143E9612078C006CD
:1009700035D5606901280CD0401D686B24D0384300
:100980006863686B400840006863FFF7B9FD07467D
:1009900022E0686B38436863686B01210843686331
:1009A000FFF7AEFD074604E0FFF7AAFDC01B0228D3
:1009B00031D8686B8007F7D5686BF8218843A16947
:1009C000C900084368630AE0B8436863F4E7FFF7C7
:1009D00097FDC01B02281ED8686B8007F7D42078CB
:1009E000800637D568680007800F032814D0686830
:1009F0000007800F022804D16868C003800F032815
:100A00000AD0206A0028686B16D030436863FFF76D
:100A100077FD06460CE062E0686B80031AD5206A19
:100A2000012877D116E0FFF76BFD801B022856D80E
:100A3000686B8003F7D50DE0B0436863FFF760FD96
:100A4000064604E0FFF75CFD801B022847D8686B70
:100A50008003F7D4606A002866D069680907890FA7
:100A6000022942D0012636060228286805D0B04364
:100A70002860FFF745FD044633E0B0432860FFF7E8
:100A80003FFD074604E0FFF73BFDC01B022826D8C8
:100A900028688001F7D4E86A216B00090001084347
:100AA000E862A16AE06A084369687B22D203914345
:100AB00008436860286830432860FFF721FD04463A
:100AC00004E0FFF71DFD001B022808D828688001FC
:100AD000F7D529E0FFF714FD001B022801D90320F8
:100AE000FEBD28688001F5D41EE00128F8D06868B2
:100AF000E96A0322D203A36A02409A420AD1090793
:100B0000226B090F914205D10F2189040840E16A47
:100B1000884209D00120FEBD000001000010024003
:100B200000700040881300000020F4E7094910B568
:100B3000401E884201D9012010BD074C606103218D
:100B4000081F00F069F80020A06107202061002044
:100B500010BD0000FFFFFF0000E000E0FEE7FEE741
:100B60007047704710B5FFF7D1FC084CFA21206898
:100B7000FFF7B5FB002904D10548416980225140A7
:100B800041612068401C206010BD00000000002072
:100B90000008004810B592B034216846FFF79DFB6D
:100BA00000240F94022000900D9401200E940390D5
:100BB00010200994049010946846FFF7B5FD0028B2
:100BC00001D072B6FEE707200D900E940F9400211D
:100BD00010940DA8FFF7ECFC002801D072B6FEE7D8
:100BE00012B010BD7047F8B5040C8BB2264682B225
:100BF0005E430D0C1046370C584336048019002113
:100C0000794116466E43370C3604801979412646E1
:100C10006E438919F8BD00008307FF22DB0E9A405E
:100C20008907090E9940002808DB830809489B00C2
:100C30001B18186890430843186070470007000F9E
:100C40000838830804489B001B18D8699043084360
:100C5000D861704700E400E000ED00E0FFF75EFCC3
:100C6000FFF798FF1A4841691A4A114341611A4C2B
:100C70002068552109030843206060690121490269
:100C8000084360610920C006C16802221143C160A7
:100C90001248026801210A43026042684260826889
:100CA0000A4382600E48816881600E4920200860F6
:100CB0000D490868FF221202904308604025FF2674
:100CC000F5366069684060613046FFF707FCF8E779
:100CD0000010024001000A00000800480004014022
:100CE0000000014000E100E004E400E0020304052C
:100CF000060708090A0B0C0D0E0F10100102030461
:100D000005060708090A0B0C0D0E0F100000000065
:100D10000000000001020304060708093C0D00085A
:100D2000000000201400000004010008500D00081D
:100D300014000020640600002001000800000000EC
:100D400001000000040000000000000000127A0012
:04000005080000C12E
:00000001FF
